{
  "contractName": "M8BadgeToken",
  "abi": [
    {
      "constant": true,
      "inputs": [],
      "name": "name",
      "outputs": [
        {
          "name": "",
          "type": "string"
        }
      ],
      "payable": false,
      "stateMutability": "view",
      "type": "function"
    },
    {
      "constant": false,
      "inputs": [
        {
          "name": "_to",
          "type": "address"
        },
        {
          "name": "_tokenId",
          "type": "uint256"
        }
      ],
      "name": "approve",
      "outputs": [],
      "payable": false,
      "stateMutability": "nonpayable",
      "type": "function"
    },
    {
      "constant": true,
      "inputs": [
        {
          "name": "",
          "type": "uint256"
        }
      ],
      "name": "badgeIndexToOwner",
      "outputs": [
        {
          "name": "",
          "type": "address"
        }
      ],
      "payable": false,
      "stateMutability": "view",
      "type": "function"
    },
    {
      "constant": true,
      "inputs": [],
      "name": "totalSupply",
      "outputs": [
        {
          "name": "",
          "type": "uint256"
        }
      ],
      "payable": false,
      "stateMutability": "view",
      "type": "function"
    },
    {
      "constant": false,
      "inputs": [
        {
          "name": "_from",
          "type": "address"
        },
        {
          "name": "_to",
          "type": "address"
        },
        {
          "name": "_tokenId",
          "type": "uint256"
        }
      ],
      "name": "transferFrom",
      "outputs": [],
      "payable": false,
      "stateMutability": "nonpayable",
      "type": "function"
    },
    {
      "constant": true,
      "inputs": [],
      "name": "allWallets",
      "outputs": [
        {
          "name": "",
          "type": "address[]"
        }
      ],
      "payable": false,
      "stateMutability": "view",
      "type": "function"
    },
    {
      "constant": true,
      "inputs": [
        {
          "name": "",
          "type": "uint256"
        }
      ],
      "name": "badgeIndexToApproved",
      "outputs": [
        {
          "name": "",
          "type": "address"
        }
      ],
      "payable": false,
      "stateMutability": "view",
      "type": "function"
    },
    {
      "constant": false,
      "inputs": [
        {
          "name": "_donationTransactionId",
          "type": "string"
        },
        {
          "name": "_name",
          "type": "string"
        },
        {
          "name": "_owner",
          "type": "address"
        }
      ],
      "name": "create",
      "outputs": [
        {
          "name": "",
          "type": "uint256"
        }
      ],
      "payable": false,
      "stateMutability": "nonpayable",
      "type": "function"
    },
    {
      "constant": true,
      "inputs": [
        {
          "name": "_tokenId",
          "type": "uint256"
        }
      ],
      "name": "ownerOf",
      "outputs": [
        {
          "name": "owner",
          "type": "address"
        }
      ],
      "payable": false,
      "stateMutability": "view",
      "type": "function"
    },
    {
      "constant": true,
      "inputs": [
        {
          "name": "_owner",
          "type": "address"
        }
      ],
      "name": "balanceOf",
      "outputs": [
        {
          "name": "count",
          "type": "uint256"
        }
      ],
      "payable": false,
      "stateMutability": "view",
      "type": "function"
    },
    {
      "constant": false,
      "inputs": [
        {
          "name": "wallet",
          "type": "address"
        }
      ],
      "name": "addDonationWallet",
      "outputs": [
        {
          "name": "",
          "type": "uint256"
        }
      ],
      "payable": false,
      "stateMutability": "nonpayable",
      "type": "function"
    },
    {
      "constant": true,
      "inputs": [
        {
          "name": "_owner",
          "type": "address"
        }
      ],
      "name": "tokensOfOwner",
      "outputs": [
        {
          "name": "ownerTokens",
          "type": "uint256[]"
        }
      ],
      "payable": false,
      "stateMutability": "view",
      "type": "function"
    },
    {
      "constant": true,
      "inputs": [
        {
          "name": "_tokenId",
          "type": "uint256"
        }
      ],
      "name": "getBadge",
      "outputs": [
        {
          "name": "name",
          "type": "string"
        }
      ],
      "payable": false,
      "stateMutability": "view",
      "type": "function"
    },
    {
      "constant": true,
      "inputs": [],
      "name": "owner",
      "outputs": [
        {
          "name": "",
          "type": "address"
        }
      ],
      "payable": false,
      "stateMutability": "view",
      "type": "function"
    },
    {
      "constant": true,
      "inputs": [],
      "name": "symbol",
      "outputs": [
        {
          "name": "",
          "type": "string"
        }
      ],
      "payable": false,
      "stateMutability": "view",
      "type": "function"
    },
    {
      "constant": false,
      "inputs": [
        {
          "name": "_to",
          "type": "address"
        },
        {
          "name": "_tokenId",
          "type": "uint256"
        }
      ],
      "name": "transfer",
      "outputs": [],
      "payable": false,
      "stateMutability": "nonpayable",
      "type": "function"
    },
    {
      "constant": false,
      "inputs": [
        {
          "name": "walletId",
          "type": "uint256"
        }
      ],
      "name": "deleteWallet",
      "outputs": [
        {
          "name": "",
          "type": "uint256"
        }
      ],
      "payable": false,
      "stateMutability": "nonpayable",
      "type": "function"
    },
    {
      "constant": false,
      "inputs": [
        {
          "name": "newOwner",
          "type": "address"
        }
      ],
      "name": "transferOwnership",
      "outputs": [],
      "payable": false,
      "stateMutability": "nonpayable",
      "type": "function"
    },
    {
      "inputs": [],
      "payable": false,
      "stateMutability": "nonpayable",
      "type": "constructor"
    },
    {
      "anonymous": false,
      "inputs": [
        {
          "indexed": true,
          "name": "previousOwner",
          "type": "address"
        },
        {
          "indexed": true,
          "name": "newOwner",
          "type": "address"
        }
      ],
      "name": "OwnershipTransferred",
      "type": "event"
    },
    {
      "anonymous": false,
      "inputs": [
        {
          "indexed": false,
          "name": "from",
          "type": "address"
        },
        {
          "indexed": false,
          "name": "to",
          "type": "address"
        },
        {
          "indexed": false,
          "name": "tokenId",
          "type": "uint256"
        }
      ],
      "name": "Transfer",
      "type": "event"
    },
    {
      "anonymous": false,
      "inputs": [
        {
          "indexed": false,
          "name": "owner",
          "type": "address"
        },
        {
          "indexed": false,
          "name": "approved",
          "type": "address"
        },
        {
          "indexed": false,
          "name": "tokenId",
          "type": "uint256"
        }
      ],
      "name": "Approval",
      "type": "event"
    },
    {
      "anonymous": false,
      "inputs": [
        {
          "indexed": false,
          "name": "owner",
          "type": "address"
        },
        {
          "indexed": false,
          "name": "badgeId",
          "type": "uint256"
        }
      ],
      "name": "Creation",
      "type": "event"
    }
  ],
  "bytecode": "0x606060405234156200001057600080fd5b33600460006101000a81548173ffffffffffffffffffffffffffffffffffffffff021916908373ffffffffffffffffffffffffffffffffffffffff160217905550620000dc6040805190810160405280600181526020017f30000000000000000000000000000000000000000000000000000000000000008152506040805190810160405280601481526020017f496e697469616c697a6174696f6e20426164676500000000000000000000000081525033620000e36401000000000262000ad0176401000000009004565b5062000775565b6000600460009054906101000a900473ffffffffffffffffffffffffffffffffffffffff1673ffffffffffffffffffffffffffffffffffffffff163373ffffffffffffffffffffffffffffffffffffffff161415156200014257600080fd5b6006846040518082805190602001908083835b6020831015156200017c578051825260208201915060208101905060208303925062000155565b6001836020036101000a038019825116818451168082178552505050505050905001915050908152602001604051809103902060009054906101000a900460ff16151515620001ca57600080fd5b60016006856040518082805190602001908083835b602083101515620002065780518252602082019150602081019050602083039250620001df565b6001836020036101000a038019825116818451168082178552505050505050905001915050908152602001604051809103902060006101000a81548160ff021916908315150217905550620002718484846200027a640100000000026200179a176401000000009004565b90509392505050565b600062000286620005c1565b60006040805190810160405280878152602001868152509150600160008054806001018281620002b79190620005eb565b916000526020600020906002020160008590919091506000820151816000019080519060200190620002eb92919062000620565b5060208201518160010190805190602001906200030a92919062000620565b5050500390508063ffffffff16811415156200032557600080fd5b7fc07d6fc5db170f8be7da51bea7bf502fb674192c618536ee210555994694b0b78482604051808373ffffffffffffffffffffffffffffffffffffffff1673ffffffffffffffffffffffffffffffffffffffff1681526020018281526020019250505060405180910390a1620003b260008583620003be6401000000000262001598176401000000009004565b80925050509392505050565b600260008373ffffffffffffffffffffffffffffffffffffffff1673ffffffffffffffffffffffffffffffffffffffff16815260200190815260200160002060008154809291906001019190505550816001600083815260200190815260200160002060006101000a81548173ffffffffffffffffffffffffffffffffffffffff021916908373ffffffffffffffffffffffffffffffffffffffff160217905550600073ffffffffffffffffffffffffffffffffffffffff168373ffffffffffffffffffffffffffffffffffffffff161415156200051d57600260008473ffffffffffffffffffffffffffffffffffffffff1673ffffffffffffffffffffffffffffffffffffffff16815260200190815260200160002060008154809291906001900391905055506003600082815260200190815260200160002060006101000a81549073ffffffffffffffffffffffffffffffffffffffff02191690555b7fddf252ad1be2c89b69c2b068fc378daa952ba7f163c4a11628f55a4df523b3ef838383604051808473ffffffffffffffffffffffffffffffffffffffff1673ffffffffffffffffffffffffffffffffffffffff1681526020018373ffffffffffffffffffffffffffffffffffffffff1673ffffffffffffffffffffffffffffffffffffffff168152602001828152602001935050505060405180910390a1505050565b6040805190810160405280620005d6620006a7565b8152602001620005e5620006a7565b81525090565b8154818355818115116200061b576002028160020283600052602060002091820191016200061a9190620006bb565b5b505050565b828054600181600116156101000203166002900490600052602060002090601f016020900481019282601f106200066357805160ff191683800117855562000694565b8280016001018555821562000694579182015b828111156200069357825182559160200191906001019062000676565b5b509050620006a3919062000701565b5090565b602060405190810160405280600081525090565b620006fe91905b80821115620006fa5760008082016000620006de919062000729565b600182016000620006f0919062000729565b50600201620006c2565b5090565b90565b6200072691905b808211156200072257600081600090555060010162000708565b5090565b90565b50805460018160011615610100020316600290046000825580601f1062000751575062000772565b601f01602090049060005260206000209081019062000771919062000701565b5b50565b611b1780620007856000396000f3006060604052600436106100fc576000357c0100000000000000000000000000000000000000000000000000000000900463ffffffff16806306fdde0314610101578063095ea7b31461018f5780630c83f54c146101d157806318160ddd1461023457806323b872dd1461025d5780632728f4e5146102be57806332ff7279146103285780635a9c27241461038b5780636352211e1461045e57806370a08231146104c157806370fdcf511461050e5780638462151c1461055b5780638d838622146105e95780638da5cb5b1461068557806395d89b41146106da578063a9059cbb14610768578063b830d685146107aa578063f2fde38b146107e1575b600080fd5b341561010c57600080fd5b61011461081a565b6040518080602001828103825283818151815260200191508051906020019080838360005b83811015610154578082015181840152602081019050610139565b50505050905090810190601f1680156101815780820380516001836020036101000a031916815260200191505b509250505060405180910390f35b341561019a57600080fd5b6101cf600480803573ffffffffffffffffffffffffffffffffffffffff16906020019091908035906020019091905050610853565b005b34156101dc57600080fd5b6101f26004808035906020019091905050610915565b604051808273ffffffffffffffffffffffffffffffffffffffff1673ffffffffffffffffffffffffffffffffffffffff16815260200191505060405180910390f35b341561023f57600080fd5b610247610948565b6040518082815260200191505060405180910390f35b341561026857600080fd5b6102bc600480803573ffffffffffffffffffffffffffffffffffffffff1690602001909190803573ffffffffffffffffffffffffffffffffffffffff16906020019091908035906020019091905050610958565b005b34156102c957600080fd5b6102d1610a09565b6040518080602001828103825283818151815260200191508051906020019060200280838360005b838110156103145780820151818401526020810190506102f9565b505050509050019250505060405180910390f35b341561033357600080fd5b6103496004808035906020019091905050610a9d565b604051808273ffffffffffffffffffffffffffffffffffffffff1673ffffffffffffffffffffffffffffffffffffffff16815260200191505060405180910390f35b341561039657600080fd5b610448600480803590602001908201803590602001908080601f0160208091040260200160405190810160405280939291908181526020018383808284378201915050505050509190803590602001908201803590602001908080601f0160208091040260200160405190810160405280939291908181526020018383808284378201915050505050509190803573ffffffffffffffffffffffffffffffffffffffff16906020019091905050610ad0565b6040518082815260200191505060405180910390f35b341561046957600080fd5b61047f6004808035906020019091905050610c4b565b604051808273ffffffffffffffffffffffffffffffffffffffff1673ffffffffffffffffffffffffffffffffffffffff16815260200191505060405180910390f35b34156104cc57600080fd5b6104f8600480803573ffffffffffffffffffffffffffffffffffffffff16906020019091905050610cc4565b6040518082815260200191505060405180910390f35b341561051957600080fd5b610545600480803573ffffffffffffffffffffffffffffffffffffffff16906020019091905050610d0d565b6040518082815260200191505060405180910390f35b341561056657600080fd5b610592600480803573ffffffffffffffffffffffffffffffffffffffff16906020019091905050610e6d565b6040518080602001828103825283818151815260200191508051906020019060200280838360005b838110156105d55780820151818401526020810190506105ba565b505050509050019250505060405180910390f35b34156105f457600080fd5b61060a6004808035906020019091905050610fa4565b6040518080602001828103825283818151815260200191508051906020019080838360005b8381101561064a57808201518184015260208101905061062f565b50505050905090810190601f1680156106775780820380516001836020036101000a031916815260200191505b509250505060405180910390f35b341561069057600080fd5b610698611085565b604051808273ffffffffffffffffffffffffffffffffffffffff1673ffffffffffffffffffffffffffffffffffffffff16815260200191505060405180910390f35b34156106e557600080fd5b6106ed6110ab565b6040518080602001828103825283818151815260200191508051906020019080838360005b8381101561072d578082015181840152602081019050610712565b50505050905090810190601f16801561075a5780820380516001836020036101000a031916815260200191505b509250505060405180910390f35b341561077357600080fd5b6107a8600480803573ffffffffffffffffffffffffffffffffffffffff169060200190919080359060200190919050506110e4565b005b34156107b557600080fd5b6107cb600480803590602001909190505061117f565b6040518082815260200191505060405180910390f35b34156107ec57600080fd5b610818600480803573ffffffffffffffffffffffffffffffffffffffff16906020019091905050611312565b005b6040805190810160405280600c81526020017f4d6f74697638204261646765000000000000000000000000000000000000000081525081565b61085d338261146a565b151561086857600080fd5b61087281836114d6565b7f8c5be1e5ebec7d5bd14f71427d1e84f3dd0314c0f7b2291e5b200ac8c7c3b925338383604051808473ffffffffffffffffffffffffffffffffffffffff1673ffffffffffffffffffffffffffffffffffffffff1681526020018373ffffffffffffffffffffffffffffffffffffffff1673ffffffffffffffffffffffffffffffffffffffff168152602001828152602001935050505060405180910390a15050565b60016020528060005260406000206000915054906101000a900473ffffffffffffffffffffffffffffffffffffffff1681565b6000600160008054905003905090565b600073ffffffffffffffffffffffffffffffffffffffff168273ffffffffffffffffffffffffffffffffffffffff161415151561099457600080fd5b3073ffffffffffffffffffffffffffffffffffffffff168273ffffffffffffffffffffffffffffffffffffffff16141515156109cf57600080fd5b6109d9338261152c565b15156109e457600080fd5b6109ee838261146a565b15156109f957600080fd5b610a04838383611598565b505050565b610a116118bf565b6005805480602002602001604051908101604052809291908181526020018280548015610a9357602002820191906000526020600020905b8160009054906101000a900473ffffffffffffffffffffffffffffffffffffffff1673ffffffffffffffffffffffffffffffffffffffff1681526020019060010190808311610a49575b5050505050905090565b60036020528060005260406000206000915054906101000a900473ffffffffffffffffffffffffffffffffffffffff1681565b6000600460009054906101000a900473ffffffffffffffffffffffffffffffffffffffff1673ffffffffffffffffffffffffffffffffffffffff163373ffffffffffffffffffffffffffffffffffffffff16141515610b2e57600080fd5b6006846040518082805190602001908083835b602083101515610b665780518252602082019150602081019050602083039250610b41565b6001836020036101000a038019825116818451168082178552505050505050905001915050908152602001604051809103902060009054906101000a900460ff16151515610bb357600080fd5b60016006856040518082805190602001908083835b602083101515610bed5780518252602082019150602081019050602083039250610bc8565b6001836020036101000a038019825116818451168082178552505050505050905001915050908152602001604051809103902060006101000a81548160ff021916908315150217905550610c4284848461179a565b90509392505050565b60006001600083815260200190815260200160002060009054906101000a900473ffffffffffffffffffffffffffffffffffffffff169050600073ffffffffffffffffffffffffffffffffffffffff168173ffffffffffffffffffffffffffffffffffffffff1614151515610cbf57600080fd5b919050565b6000600260008373ffffffffffffffffffffffffffffffffffffffff1673ffffffffffffffffffffffffffffffffffffffff168152602001908152602001600020549050919050565b600080600460009054906101000a900473ffffffffffffffffffffffffffffffffffffffff1673ffffffffffffffffffffffffffffffffffffffff163373ffffffffffffffffffffffffffffffffffffffff16141515610d6c57600080fd5b600090505b600580549050811015610e00578273ffffffffffffffffffffffffffffffffffffffff16600582815481101515610da457fe5b906000526020600020900160009054906101000a900473ffffffffffffffffffffffffffffffffffffffff1673ffffffffffffffffffffffffffffffffffffffff1614151515610df357600080fd5b8080600101915050610d71565b600160058054806001018281610e1691906118d3565b9160005260206000209001600086909190916101000a81548173ffffffffffffffffffffffffffffffffffffffff021916908373ffffffffffffffffffffffffffffffffffffffff16021790555003915050919050565b610e756118ff565b6000610e7f6118ff565b6000806000610e8d87610cc4565b94506000851415610ebf576000604051805910610ea75750595b90808252806020026020018201604052509550610f9a565b84604051805910610ecd5750595b90808252806020026020018201604052509350610ee8610948565b925060009150600190505b8281111515610f96578673ffffffffffffffffffffffffffffffffffffffff166001600083815260200190815260200160002060009054906101000a900473ffffffffffffffffffffffffffffffffffffffff1673ffffffffffffffffffffffffffffffffffffffff161415610f8957808483815181101515610f7257fe5b906020019060200201818152505081806001019250505b8080600101915050610ef3565b8395505b5050505050919050565b610fac611913565b600082600080549050111515610fc157600080fd5b600083815481101515610fd057fe5b90600052602060002090600202019050806001018054600181600116156101000203166002900480601f0160208091040260200160405190810160405280929190818152602001828054600181600116156101000203166002900480156110785780601f1061104d57610100808354040283529160200191611078565b820191906000526020600020905b81548152906001019060200180831161105b57829003601f168201915b5050505050915050919050565b600460009054906101000a900473ffffffffffffffffffffffffffffffffffffffff1681565b6040805190810160405280600781526020017f4d3842616467650000000000000000000000000000000000000000000000000081525081565b600073ffffffffffffffffffffffffffffffffffffffff168273ffffffffffffffffffffffffffffffffffffffff161415151561112057600080fd5b3073ffffffffffffffffffffffffffffffffffffffff168273ffffffffffffffffffffffffffffffffffffffff161415151561115b57600080fd5b611165338261146a565b151561117057600080fd5b61117b338383611598565b5050565b600080600460009054906101000a900473ffffffffffffffffffffffffffffffffffffffff1673ffffffffffffffffffffffffffffffffffffffff163373ffffffffffffffffffffffffffffffffffffffff161415156111de57600080fd5b60058054905083101515156111f257600080fd5b8290505b6001600580549050038110156112a95760056001820181548110151561121857fe5b906000526020600020900160009054906101000a900473ffffffffffffffffffffffffffffffffffffffff1660058281548110151561125357fe5b906000526020600020900160006101000a81548173ffffffffffffffffffffffffffffffffffffffff021916908373ffffffffffffffffffffffffffffffffffffffff16021790555080806001019150506111f6565b60056001600580549050038154811015156112c057fe5b906000526020600020900160006101000a81549073ffffffffffffffffffffffffffffffffffffffff021916905560058054809190600190036113039190611927565b50600580549050915050919050565b600460009054906101000a900473ffffffffffffffffffffffffffffffffffffffff1673ffffffffffffffffffffffffffffffffffffffff163373ffffffffffffffffffffffffffffffffffffffff1614151561136e57600080fd5b600073ffffffffffffffffffffffffffffffffffffffff168173ffffffffffffffffffffffffffffffffffffffff16141515156113aa57600080fd5b8073ffffffffffffffffffffffffffffffffffffffff16600460009054906101000a900473ffffffffffffffffffffffffffffffffffffffff1673ffffffffffffffffffffffffffffffffffffffff167f8be0079c531659141344cd1fd0a4f28419497f9722a3daafe3b4186f6b6457e060405160405180910390a380600460006101000a81548173ffffffffffffffffffffffffffffffffffffffff021916908373ffffffffffffffffffffffffffffffffffffffff16021790555050565b60008273ffffffffffffffffffffffffffffffffffffffff166001600084815260200190815260200160002060009054906101000a900473ffffffffffffffffffffffffffffffffffffffff1673ffffffffffffffffffffffffffffffffffffffff1614905092915050565b806003600084815260200190815260200160002060006101000a81548173ffffffffffffffffffffffffffffffffffffffff021916908373ffffffffffffffffffffffffffffffffffffffff1602179055505050565b60008273ffffffffffffffffffffffffffffffffffffffff166001600084815260200190815260200160002060009054906101000a900473ffffffffffffffffffffffffffffffffffffffff1673ffffffffffffffffffffffffffffffffffffffff1614905092915050565b600260008373ffffffffffffffffffffffffffffffffffffffff1673ffffffffffffffffffffffffffffffffffffffff16815260200190815260200160002060008154809291906001019190505550816001600083815260200190815260200160002060006101000a81548173ffffffffffffffffffffffffffffffffffffffff021916908373ffffffffffffffffffffffffffffffffffffffff160217905550600073ffffffffffffffffffffffffffffffffffffffff168373ffffffffffffffffffffffffffffffffffffffff161415156116f657600260008473ffffffffffffffffffffffffffffffffffffffff1673ffffffffffffffffffffffffffffffffffffffff16815260200190815260200160002060008154809291906001900391905055506003600082815260200190815260200160002060006101000a81549073ffffffffffffffffffffffffffffffffffffffff02191690555b7fddf252ad1be2c89b69c2b068fc378daa952ba7f163c4a11628f55a4df523b3ef838383604051808473ffffffffffffffffffffffffffffffffffffffff1673ffffffffffffffffffffffffffffffffffffffff1681526020018373ffffffffffffffffffffffffffffffffffffffff1673ffffffffffffffffffffffffffffffffffffffff168152602001828152602001935050505060405180910390a1505050565b60006117a4611953565b600060408051908101604052808781526020018681525091506001600080548060010182816117d39190611979565b9160005260206000209060020201600085909190915060008201518160000190805190602001906118059291906119ab565b5060208201518160010190805190602001906118229291906119ab565b5050500390508063ffffffff168114151561183c57600080fd5b7fc07d6fc5db170f8be7da51bea7bf502fb674192c618536ee210555994694b0b78482604051808373ffffffffffffffffffffffffffffffffffffffff1673ffffffffffffffffffffffffffffffffffffffff1681526020018281526020019250505060405180910390a16118b360008583611598565b80925050509392505050565b602060405190810160405280600081525090565b8154818355818115116118fa578183600052602060002091820191016118f99190611a2b565b5b505050565b602060405190810160405280600081525090565b602060405190810160405280600081525090565b81548183558181151161194e5781836000526020600020918201910161194d9190611a2b565b5b505050565b6040805190810160405280611966611a50565b8152602001611973611a50565b81525090565b8154818355818115116119a6576002028160020283600052602060002091820191016119a59190611a64565b5b505050565b828054600181600116156101000203166002900490600052602060002090601f016020900481019282601f106119ec57805160ff1916838001178555611a1a565b82800160010185558215611a1a579182015b82811115611a195782518255916020019190600101906119fe565b5b509050611a279190611a2b565b5090565b611a4d91905b80821115611a49576000816000905550600101611a31565b5090565b90565b602060405190810160405280600081525090565b611aa091905b80821115611a9c5760008082016000611a839190611aa3565b600182016000611a939190611aa3565b50600201611a6a565b5090565b90565b50805460018160011615610100020316600290046000825580601f10611ac95750611ae8565b601f016020900490600052602060002090810190611ae79190611a2b565b5b505600a165627a7a72305820744ed5a36a68ce683cd4f51e603721a9f69fc8939e216a47858e812694b324b50029",
  "source": "pragma solidity ^0.4.17;\nimport \"./M8BadgeOwnership.sol\";\nimport 'node_modules/zeppelin-solidity/contracts/ownership/Ownable.sol';\n\ncontract M8BadgeToken is M8BadgeOwnership, Ownable {    \n\n    address[] donationWallets;\n    mapping(string=>bool) claimedTransactions;\n\n    function M8BadgeToken() public {\n        create(\"0\", \"Initialization Badge\", msg.sender);\n    }\n\n    function create(string _donationTransactionId, string _name, address _owner ) onlyOwner public returns (uint) {\n        require(!claimedTransactions[_donationTransactionId]);  \n        //@dev TODO: implement merkle proof protection              \n        claimedTransactions[_donationTransactionId] = true;\n        return _createBadge(_donationTransactionId, _name, _owner);\n    }\n\n    /// @dev returns badge information\n    function getBadge(uint256 _tokenId) public view returns (string name) {\n        require(badges.length > _tokenId);\n        M8Badge storage badge = badges[_tokenId];\n        name = string(badge.name);\n    }\n\n    function addDonationWallet(address wallet) onlyOwner public returns(uint256) {\n        for (uint256 index = 0; index < donationWallets.length; index ++) {\n            require(donationWallets[index] != wallet);\n        }\n        return donationWallets.push(wallet) - 1;\n    }\n\n    function deleteWallet(uint256 walletId) onlyOwner public returns(uint256){\n        require(walletId >= donationWallets.length);   \n\n        for (uint i = walletId; i<donationWallets.length-1; i++){\n            donationWallets[i] = donationWallets[i+1];\n        }\n        delete donationWallets[donationWallets.length-1];\n        donationWallets.length--;\n        return donationWallets.length;\n    }\n\n    function allWallets() public view returns (address[]) {\n        return donationWallets;\n    }\n}",
  "sourcePath": "/Developer/projects/motiv8/motiv8/contracts/M8BadgeToken.sol",
  "compiler": {
    "name": "solc",
    "version": "0.4.18+commit.9cf6e910.Emscripten.clang"
  },
  "schemaVersion": "1.0.1",
  "updatedAt": "2018-01-20T12:05:55.635Z"
}